:1004000000000820B13900000105000001050000CE
:1004100001050000010500000105000000000000CA
:10042000000000000000000000000000593800003B
:1004300001050000000000007D380000D7380000F2
:1004400000000000000000000000000000000000AC
:10045000000000000000000000000000000000009C
:10046000000000000000000000000000000000008C
:10047000000000000000000000000000000000007C
:10048000000000000000000000000000000000006C
:10049000000000000000000000000000000000005C
:1004A000000000000000000000000000000000004C
:1004B000000000000000000000000000000000003C
:1004C000000000000000000000000000000000002C
:1004D000000000000000000000000000000000001C
:1004E000000000000000000000000000000000000C
:1004F00000000000000000000000000000000000FC
:10050000684620F007018D4681B400AFFEE780B455
:1005100083B000AF786000BF0C37BD4680BC704729
:1005200080B483B000AF786000BF0C37BD4680BC9C
:10053000704780B582B000AF786000F08AFB00BFE2
:100540000837BD4680BD80B582B000AF786000F04E
:10055000A1FB00F0B7FB00F0A9FB00BF0837BD46C8
:1005600080BD80B483B000AF786000BF0C37BD465B
:1005700080BC704780B483B000AF786000BF0C3798
:10058000BD4680BC704780B483B000AF786000BFC8
:100590000C37BD4680BC704780B483B000AF786034
:1005A00000BF0C37BD4680BC704780B500AF00F07F
:1005B00083FB00F075FB00F08BFB00BF80BD80B4B7
:1005C00083B000AF0346FB7100BF0C37BD4680BC53
:1005D000704780B400AF00BFBD4680BC704780B498
:1005E00000AF00BFBD4680BC704780B400AF00BF05
:1005F000BD4680BC704780B500AF00F057FB00BF20
:1006000080BD80B500AF00F074FD01F03DFD00231A
:10061000184680BD80B487B000AFF860B9607A60DA
:10062000FB687B6105E07B695A1C7A61BA68D2B2CB
:100630001A707B685A1E7A60002BF4D1FB6818464A
:100640001C37BD4680BC704780B487B000AFF860EF
:10065000B9607A60FB687B61BB683B6107E03A691F
:10066000531C3B617B69591C796112781A707B6855
:100670005A1E7A60002BF2D1FB6818461C37BD4623
:1006800080BC704780B487B000AFF860B9607A6012
:10069000FB687B61BB683B617A693B699A420ED219
:1006A00007E03A69531C3B617B69591C79611278F8
:1006B0001A707B685A1E7A60002BF2D117E07A69B3
:1006C0007B6813447B613A697B6813443B6109E0B2
:1006D0003B69013B3B617B69013B7B613B691A786C
:1006E0007B691A707B685A1E7A60002BF0D1FB6818
:1006F00018461C37BD4680BC704780B487B000AF39
:10070000F860B9607A60FB687B61BB683B6112E0AE
:100710007B691A783B691B789A4206D07B691B7803
:100720001A463B691B78D31A0BE07B6901337B6166
:100730003B6901333B617B685A1E7A60002BE7D12D
:10074000002318461C37BD4680BC704780B485B076
:1007500000AF78600023FB6002E0FB680133FB60C0
:100760007B685A1C7A601B78002BF6D1FB68184610
:100770001437BD4680BC704780B485B000AF786048
:1007800039607B68FB6000BF3A68531C3B60FB68C4
:10079000591CF96012781A701B78002BF4D17B6811
:1007A00018461437BD4680BC704780B483B000AF94
:1007B0007860396005E07B6801337B603B6801331A
:1007C0003B607B681B78002B05D07B681A783B6800
:1007D0001B789A42EFD07B681B781A463B681B78DF
:1007E000D31A18460C37BD4680BC704780B584B01C
:1007F00000AFF860B9607A607A68B968F868FFF7A6
:100800007CFF034618461037BD4680BD80B584B0D6
:1008100000AFF860B9607A607A68B968F868FFF785
:1008200013FF00BF1037BD4680BD80B584B000AF58
:10083000F860B9607A607A68B968F868FFF722FFF3
:1008400000BF1037BD4680BD80B584B000AFF860F2
:10085000B9607A607A68B968F868FFF7DBFE00BFB4
:100860001037BD4680BD80B400AF00BFBD4680BC20
:10087000704780B400AF00231846BD4680BC704767
:1008800080B400AF00231846BD4680BC704780B4DA
:1008900000AF00BFBD4680BC704780B400AF00BF52
:1008A000BD4680BC704780B400AF00BFBD4680BC71
:1008B000704780B400AF00BFBD4680BC704780B4B5
:1008C00083B000AF78600B46FB7000BF0C37BD46AD
:1008D00080BC704780B582B000AF78607B68032B26
:1008E0001BD07B68032B1AD87B68022B11D07B6846
:1008F000022B14D87B68002B03D07B68012B04D01B
:100900000DE0012000F04EFA0AE0022000F04AFA61
:1009100006E0032000F046FA02E000BF00E000BF5E
:1009200000BF0837BD4680BD80B500AF0020FFF78F
:10093000D1FF00BF80BD80B500AF0120FFF7CAFF27
:1009400000BF80BD80B500AF0220FFF7C3FF00BF2E
:1009500080BD80B500AF0320FFF7BCFF00BF80BDA6
:1009600080B500AF002001F06BFE00F08DFA00BFF3
:1009700080BD80B500AF02F0B7FE01F093FC00F03F
:1009800083FA00BF80BD80B500AF00F07DFA00BFE4
:1009900080BD80B500AF00F077FA00BF80BD80B5A4
:1009A00000AF00F071FA00BF80BD80B400AF00BF9F
:1009B000BD4680BC704780B400AF00BFBD4680BC60
:1009C000704780B485B000AFF860B9607A603B6072
:1009D000012318461437BD4680BC704780B483B0ED
:1009E00000AF786000BF0C37BD4680BC704780B454
:1009F00083B000AF786000BF0C37BD4680BC704745
:100A000080B483B000AF786000BF0C37BD4680BCB7
:100A1000704780B483B000AF786000BF0C37BD462C
:100A200080BC704780B483B000AF78600023184664
:100A30000C37BD4680BC704780B483B000AF78608F
:100A4000002318460C37BD4680BC704780B483B085
:100A500000AF7860396000BF0C37BD4680BC70477E
:100A600080B400AF00BFBD4680BC704780B485B085
:100A700000AFF860B9607A603B6000231846143715
:100A8000BD4680BC704780B485B000AFF860B960E7
:100A90001346FB71002318461437BD4680BC7047CF
:100AA00080B485B000AFF860B9603B601346FB715D
:100AB000002318461437BD4680BC704780B400AF91
:100AC00000231846BD4680BC704780B483B000AF99
:100AD0007860012318460C37BD4680BC704780B44F
:100AE00000AF00231846BD4680BC704780B400AFFD
:100AF00000BFBD4680BC704780B400AF00BFBD469C
:100B000080BC704780B483B000AF78600023184683
:100B10000C37BD4680BC704780B485B000AFF8602C
:100B2000B9607A603B60012318461437BD4680BC2B
:100B3000704780B483B000AF7860396001231846F5
:100B40000C37BD4680BC704780B483B000AF78607E
:100B50003960012318460C37BD4680BC704780B40D
:100B600085B000AFF860B9607A6001231846143789
:100B7000BD4680BC704780B400AF01231846BD4617
:100B800080BC704780B485B000AFF860B9607A600F
:100B90003B60002318461437BD4680BC704780B4C4
:100BA00083B000AF78603960002318460C37BD462B
:100BB00080BC704780B483B000AF78603960002398
:100BC00018460C37BD4680BC704780B483B000AF78
:100BD0007860002318460C37BD4680BC704780B44F
:100BE00000AF01231846BD4680BC704780B483B077
:100BF00000AF78603960012318460C37BD4680BCD1
:100C0000704780B483B000AF7860012318460C377A
:100C1000BD4680BC704780B483B000AF7860396057
:100C2000012318460C37BD4680BC704780B483B0A2
:100C300000AF7860002318460C37BD4680BC704773
:100C400080B483B000AF786000BF0C37BD4680BC75
:100C5000704780B400AF00BFBD4680BC704780B411
:100C600000AF00BFBD4680BC704780B400AF00BF7E
:100C7000BD4680BC704780B483B000AF786000BFD1
:100C80000C37BD4680BC704780B400AF00BFBD4686
:100C900080BC704780B400AF00BFBD4680BC7047C9
:100CA00080B400AF00BFBD4680BC704780B400AFC9
:100CB00000BFBD4680BC704780B400AF00BFBD46DA
:100CC00080BC704780B400AF00BFBD4680BC704799
:100CD00080B400AF00BFBD4680BC704780B483B015
:100CE00000AF0346FB71002318460C37BD4680BC9D
:100CF0007047000080B582B000AF0346FB71FB79FE
:100D0000184600F004F800BF0837BD4680BD80B526
:100D100082B000AF0346FB711C2200210D48FFF793
:100D200079FC0C4AFB7993700A4B01225A7000F04F
:100D300080FE00F0B1FEFB79184600F0E5FE00F001
:100D400030FEFFF7D3FE002000F044FE00BF08375E
:100D5000BD4680BD2481FF1F80B582B000AF034631
:100D6000FB71FB79184600F004F800BF0837BD4658
:100D700080BD80B582B000AF0346FB71034B0022FB
:100D80005A70FB79184600F025FEFEE72481FF1F0C
:100D900080B400AF024B9B781846BD4680BC7047BC
:100DA0002481FF1F80B584B000AF78600F4B5B6873
:100DB0007A689A4207D3032301220021012000F020
:100DC00089FF03230EE0786800F012F80346FB73F6
:100DD000FB7B002B05D0FB7B01220021012000F0D2
:100DE00079FFFB7B18461037BD4680BD2481FF1F6D
:100DF00080B586B002AF7860204B19697A681346D7
:100E00005B001344DB000B44FB60FB685B68002B5A
:100E100028D1FB68DB68FA68043201920093FB6812
:100E20004FF4807216491748FFF7CBFD0346012B9C
:100E300001D004231EE0FB685B7C002B17D0FFF77A
:100E40009AFE0246FB689A60FB689B68002B0ED1F5
:100E5000FB685B681846FFF7C1FDFB6800225A601B
:100E6000042307E0FB685B681846FFF7D2FDFFF735
:100E7000F7FD002318461037BD4680BD2481FF1FB3
:100E8000E03A0000CB1B000080B582B000AF00F05C
:100E900010F80346FB71FB79002B05D0FB79022289
:100EA0000021012000F016FFFB7918460837BD46E7
:100EB00080BD80B582B000AFFFF700FE3860002330
:100EC0007B6010E00F4B99697A6813469B001344CE
:100ED0009B000B449A683B689A4201D106230DE0BF
:100EE0007B6801337B60074BDB687A689A42E9D301
:100EF00000F045FD0020FFF783FD0023184608376A
:100F0000BD4680BD2481FF1F80B584B000AF7860EE
:100F1000174B5B687A689A4207D3032303220021A8
:100F2000012000F0D7FE03231DE07868FFF760FF83
:100F30000346FB73FB7B002B07D0FB7B03220021C6
:100F4000012000F0C7FEFB7B0DE0FFF7B2FF034678
:100F5000FB73FB7B002B05D0FB7B032200210120D0
:100F600000F0B8FEFB7B18461037BD4680BD00BFC1
:100F70002481FF1F80B500AFFFF772FD00231846E4
:100F800080BD80B584B000AF78607B68002B07D14E
:100F90000A2305220021012000F09CFE0A232AE0FA
:100FA000FFF78CFDB8600023FB601BE0144B196950
:100FB000FA6813465B001344DB000B445B68BA68B5
:100FC0009A420CD10E4B1969FA6813465B00134420
:100FD000DB000B441A687B681A6000230BE0FB6897
:100FE0000133FB60064B5B68FA689A42DED37B688C
:100FF00000221A60002318461037BD4680BD00BF8E
:101000002481FF1F80B582B000AF78603960104B3B
:101010005B687A689A4207D30323062200210120E5
:1010200000F058FE03230FE03B68002B07D10A2392
:1010300006220021012000F04DFE0A2304E0396859
:10104000786800F007F8034618460837BD4680BDAB
:101050002481FF1F80B584B000AF78603960204BD9
:1010600019697A6813465B001344DB000B44FB608C
:10107000FB685B68002B04D13B6800221A700023D8
:1010800029E0FB685B681846FFF71FFD0346FB720B
:10109000FB7A032B16D0032B18DC022B0ED0022B6D
:1010A00014DC002B02D0012B04D00FE03B6802229D
:1010B0001A700FE03B6801221A700BE03B680322B4
:1010C0001A7007E03B6800221A7003E03B680022B8
:1010D0001A7000BF002318461037BD4680BD00BF00
:1010E0002481FF1F80B400AF62B600BFBD4680BC44
:1010F000704780B400AF72B600BFBD4680BC704779
:1011000080B400AF62B600BFBD4680BC704780B4FB
:1011100000AF72B600BFBD4680BC704780B400AF60
:1011200062B600BFBD4680BC704780B400AF72B6E7
:1011300000BFBD4680BC704780B584B000AF78600A
:101140003960104B5B687A689A4207D303230D22FB
:101150000021012000F0BEFD03230FE0396878680C
:1011600000F012F80346FB73FB7B002B05D0FB7BE2
:101170000D220021012000F0ADFDFB7B1846103749
:10118000BD4680BD2481FF1F80B584B000AF78606C
:101190003960104B19697A6813465B001344DB0011
:1011A0000B44FB60FB685B7C002B01D101230CE04E
:1011B000FB689B68002B01D1072306E0FB689B6856
:1011C00039681846FFF7EBFC002318461037BD4678
:1011D00080BD00BF2481FF1F80B584B000AF786060
:1011E000786800F010F80346FB73FB7B002B05D0FA
:1011F000FB7B0E220021012000F06CFDFB7B1846DA
:101200001037BD4680BD80B584B000AF7860FFF771
:1012100055FCB8600023FB6037E0214B1969FA6880
:1012200013465B001344DB000B445B68BA689A42C8
:1012300028D11B4B1969FA6813465B001344DB0085
:101240000B445B7C002B01D1012324E0144B196972
:10125000FA6813465B001344DB000B449B68002BC9
:1012600001D1072317E00E4B1969FA6813465B009A
:101270001344DB000B449B6879681846FFF79AFC1F
:10128000002308E0FB680133FB60054B5B68FA68EC
:101290009A42C2D3012318461037BD4680BD00BF15
:1012A0002481FF1F80B584B000AF7860786800F0BB
:1012B00010F80346FB73FB7B002B05D0FB7B102251
:1012C0000021012000F006FDFB7B18461037BD46CB
:1012D00080BD80B588B002AF7860FFF7EFFBF860A3
:1012E00000237B615DE0344B19697A6913465B002A
:1012F0001344DB000B445B68FA689A424ED12E4BD4
:1013000019697A6913465B001344DB000B445B7C6C
:10131000002B01D101234AE000233B6118E0264B5A
:1013200099693A6913469B0013449B000B449968E2
:10133000214B18697A6913465B001344DB000344B0
:101340001B68994201D1062331E03B6901333B61BF
:10135000194BDB683A699A42E1D3174B19697A69EC
:1013600013465B001344DB000B449B68002B01D148
:1013700007231CE0104B19697A6913465B0013447C
:10138000DB000B4498684FF0FF33009300230022EA
:101390007968FFF7F7FBB860002308E07B69013349
:1013A0007B61054B5B687A699A429CD3012318469E
:1013B0001837BD4680BD00BF2481FF1F80B584B0B3
:1013C00000AF78603960164B5B687A689A4207D341
:1013D00003230F220021012000F07CFC03231AE0EC
:1013E0003B68002B07D10A230F220021012000F0C7
:1013F00071FC0A230FE03968786800F013F803469F
:10140000FB73FB7B002B05D0FB7B0F22002101200F
:1014100000F060FCFB7B18461037BD4680BD00BF66
:101420002481FF1F80B584B000AF78603960124B13
:1014300019697A6813465B001344DB000B44FB60B8
:10144000FB685B7C002B01D1012311E0FB689B68EA
:10145000002B04D13B6800221A60002308E0FB68DF
:101460009B681846FFF7B1FB02463B681A600023F1
:1014700018461037BD4680BD2481FF1F80B584B05B
:1014800000AF78600F4BDB687A689A4207D303237A
:101490000B220021012000F01DFC03230EE07868E0
:1014A00000F012F80346FB73FB7B002B05D0FB7B9F
:1014B0000B220021012000F00DFCFB7B18461037A9
:1014C000BD4680BD2481FF1F80B584B000AF786029
:1014D000154B99697A6813469B0013449B000B4493
:1014E000FB60FB685B68002B01D1032318E0FB68FD
:1014F0005B684FF0FF311846FFF778FB0346012B7E
:1015000001D001230CE0FFF7D9FA03461A46FB6825
:101510009A60FB681B7B0133DAB2FB681A73002305
:1015200018461037BD4680BD2481FF1F80B584B0AA
:1015300000AF78600F4BDB687A689A4207D30323C9
:101540000C220021012000F0C5FB03230EE0786887
:1015500000F012F80346FB73FB7B002B05D0FB7BEE
:101560000C220021012000F0B5FBFB7B1846103750
:10157000BD4680BD2481FF1F80B584B000AF786078
:101580001A4B99697A6813469B0013449B000B44DD
:10159000FB60FFF793FAB860FB685B68002B01D132
:1015A00003231EE0FB689A68BB689A4201D00523BA
:1015B00017E0FB681B7B013BDAB2FB681A73FB6820
:1015C0001B7B002B02D1FB6800229A60FB685B68E2
:1015D0001846FFF716FB0346012B01D0012300E05C
:1015E000002318461037BD4680BD00BF2481FF1F71
:1015F00080B582B000AF78603960134B9B687A6821
:101600009A4207D3032311220021012000F062FB3C
:10161000032315E03B68002B07D10A231122002188
:10162000012000F057FB0A230AE03B684FF0FF322D
:101630001A603B6801225A603B6801229A600023CD
:1016400018460837BD4680BD2481FF1F80B584B091
:1016500000AF78603960164B9B687A689A4207D36E
:10166000032312220021012000F034FB03231AE09F
:101670003B68002B07D10A2312220021012000F031
:1016800029FB0A230FE03968786800F013F8034655
:10169000FB73FB7B002B05D0FB7B1222002101207A
:1016A00000F018FBFB7B18461037BD4680BD00BF1D
:1016B0002481FF1F80B485B000AF786039600C4B87
:1016C00059697A681346DB009B1A9B000B44FB6048
:1016D000FB681B7C012B01D0052304E0FB68DA6862
:1016E0003B681A60002318461437BD4680BC70471B
:1016F0002481FF1F80B586B000AFF860B9607A60C2
:10170000164B9B68FA689A4207D3032313220021E1
:10171000012000F0DFFA03231BE0BB68002B07D198
:10172000082313220021012000F0D4FA082310E03E
:101730007A68B968F86800F013F80346FB75FB7D1A
:10174000002B05D0FB7D13220021012000F0C2FAFE
:10175000FB7D18461837BD4680BD00BF2481FF1FA2
:1017600080B586B000AFF860B9607A601D4B5969EA
:10177000FA681346DB009B1A9B000B443B613B69F4
:101780009B69002B01D1032327E03B69BA685A60AB
:101790003B697A689A603B6901221A74BB687B6175
:1017A0007B69002B01D101237B613B699B6900228E
:1017B00079691846FFF7D3F90346012B01D00823B6
:1017C0000BE03B699B6900211846FFF7B2F903461D
:1017D000012B01D0082300E0002318461837BD462E
:1017E00080BD00BF2481FF1F80B586B000AFF860C8
:1017F000B9607A60124B9B68FA689A4207D3032358
:1018000014220021012000F065FA032313E0FFF702
:1018100066F93861BA683B699A4204D9BA683B698B
:10182000D31A7B6101E001237B617A687969F868EA
:10183000FFF796FF034618461837BD4680BD00BF28
:101840002481FF1F80B584B000AFF860B9607A6072
:101850007A68B968F868FFF7C7FF0346184610377B
:10186000BD4680BD80B584B000AF78600F4B9B68EB
:101870007A689A4207D3032315220021012000F041
:1018800029FA03230EE0786800F012F80346FB7390
:10189000FB7B002B05D0FB7B15220021012000F0F3
:1018A00019FAFB7B18461037BD4680BD2481FF1F07
:1018B00080B584B000AF7860134B59697A681346DD
:1018C000DB009B1A9B000B44FB60FB689B69002BB1
:1018D00001D1032314E0FB681B7C012B01D00523FD
:1018E0000EE0FB689B6900211846FFF72DF90346BF
:1018F000012B01D0072303E0FB6802221A740023A6
:1019000018461037BD4680BD2481FF1F80B582B0C8
:1019100000AF0346FB71FB79184600F004F800BFE6
:101920000837BD4680BD80B483B000AF0346FB716D
:1019300000BF0C37BD4680BC704780B483B000AF99
:101940000346FB7100BF0C37BD4680BC704780B5B5
:1019500000AF00F002F800BF80BD80B400AF00BF50
:10196000BD4680BC704780B400AF00BFBD4680BCA0
:10197000704780B500AF00F002F800BF80BD80B4B2
:1019800000AF00BFBD4680BC704780B400AF00BF51
:10199000BD4680BC704780B500AF00F002F800BFC4
:1019A00080BD80B400AF00BFBD4680BC704780B42E
:1019B00000AF00BFBD4680BC704780B582B000AFAD
:1019C0000346FB71FB79184600F004F800BF0837A6
:1019D000BD4680BD80B483B000AF0346FB7100BF3D
:1019E0000C37BD4680BC704780B483B000AF03465F
:1019F000FB7100BF0C37BD4680BC704780B483B01C
:101A000000AF78607B68002B0ED07B6801221A80C3
:101A10007B6801225A807B6801221A717B68002250
:101A20005A717B6800229A7100BF0C37BD4680BC9A
:101A3000704780B582B000AF00237B601FE0154B7C
:101A400099697A6813469B0013449B000B443B60E2
:101A50003B687A681A60FFF7C2F802463B685A6032
:101A60003B6800229A603B6800221A733B680022A0
:101A70005A733B6800221A617B6801337B60054B17
:101A8000DB687A689A42DAD300BF00BF0837BD46E8
:101A900080BD00BF2481FF1F80B584B002AF00234A
:101AA0007B6020E0154B59697A681346DB009B1A6E
:101AB0009B000B443B603B687A681A603B680022DD
:101AC0001A743B6800225A610D4B00933B68002258
:101AD0004FF47A710B48FFF71FF802463B689A6192
:101AE0007B6801337B60054B9B687A689A42D9D347
:101AF00000BF00BF0837BD4680BD00BF2481FF1F67
:101B00006D1B0000E83A000080B584B000AF0346CA
:101B1000FB710023FB601DE0134B1969FA68134643
:101B20005B001344DB000B44BB60BB68FA681A60BF
:101B3000BB6800225A60BB6800229A60BB681B7CAD
:101B4000002B04D0BB681B681846FFF751F9FB68EF
:101B50000133FB60044B5B68FA689A42DCD300BF38
:101B600000BF1037BD4680BD2481FF1F80B584B003
:101B700000AF78607868FEF7C5FFB860BB68002BDF
:101B800006D0BB685B69002B02D0BB685B699847D5
:101B9000BB689B68002B14D0BB681B7C012B10D149
:101BA000BB689B68FB60FB68002B01D10123FB60D5
:101BB0000022F9687868FEF7D2FF00217868FEF706
:101BC000B8FF00BF1037BD4680BD80B584B000AF00
:101BD00078607B68FB60FFF7C0FEFB685B69002BE9
:101BE00002D0FB685B699847FFF763F900BF1037C5
:101BF000BD4680BD80B485B000AF7860294B1B78AE
:101C0000012B49D0274B1B78022B45D0264A7B68F5
:101C10001360244B01221A70244B01221A70244BAA
:101C200000221A60234B00221A60234B00221A6004
:101C3000224B00221A700023FB7307E0FB7B204A33
:101C4000002142F82310FB7B0133FB73FB7B032B4A
:101C5000F4D91C4B00221A700023BB7307E0BB7B36
:101C6000194A002142F82310BB7B0133BB73BB7BB5
:101C7000012BF4D9154B00221A7000237B7307E067
:101C80007B7B134A002142F823107B7B01337B735B
:101C90007B7B012BF4D900E000BF1437BD4680BC2C
:101CA000704700BF7881FF1F7C81FF1F8C81FF1F61
:101CB0008081FF1F8481FF1F8881FF1FA081FF1F7C
:101CC0009081FF1FAC81FF1FA481FF1FB881FF1F00
:101CD000B081FF1F90B583B000AF0446084611469F
:101CE0001A462346FB8003467B710B463B71134625
:101CF000FB70084B1B680133064A1360FB783A7986
:101D00007979F88800F085F8002318460C37BD462D
:101D100090BD00BF8081FF1F80B400AF054B1B78D2
:101D2000012B02D1034B02221A7000BFBD4680BCBA
:101D3000704700BF7881FF1F90B585B000AF0446A3
:101D4000084611461A462346FB8003467B710B4624
:101D50003B711346FB700123FB73094B1B68013376
:101D6000074A1360FB783A797979F88800F084F8AB
:101D70000023FB73FB7B18461437BD4690BD00BFA4
:101D80008481FF1F90B585B000AF04460846114618
:101D90001A462346FB8003467B710B463B71134674
:101DA000FB700123FB73094B1B680133074A136067
:101DB000FB783A797979F88800F090F80023FB7382
:101DC000FB7B18461437BD4690BD00BF8881FF1FBE
:101DD00080B582B000AF78607B68002B0FD07B6845
:101DE00064221A807B680F225A807B6801221A7154
:101DF0007B6800225A717B6800229A7105E00123FA
:101E0000002200210F20FFF765FF00BF0837BD4605
:101E100080BD90B585B000AF0446084611461A460D
:101E20002346FB8003467B710B463B711346FB70D8
:101E30000023FB7311E0FB7B0D4A52F82330002B8B
:101E400008D0FB7B0A4A52F82340FB783A7979792B
:101E5000F888A047FB7B0133FB73064B1B78FA7BAA
:101E60009A42E8D300BF00BF1437BD4690BD00BF03
:101E70009081FF1FA081FF1F90B585B000AF044681
:101E8000084611461A462346FB8003467B710B46E3
:101E90003B711346FB700023FB7311E0FB7B0D4A83
:101EA00052F82330002B08D0FB7B0A4A52F823401B
:101EB000FB783A797979F888A047FB7B0133FB738B
:101EC000054B1B78FA7B9A42E8D300BF00BF14375A
:101ED000BD4690BDA481FF1FAC81FF1F90B585B0AA
:101EE00000AF0446084611461A462346FB800346C7
:101EF0007B710B463B711346FB700023FB7311E0B3
:101F0000FB7B0D4A52F82330002B08D0FB7B0A4A9A
:101F100052F82340FB783A797979F888A047FB7B1F
:101F20000133FB73054B1B78FA7B9A42E8D300BF61
:101F300000BF1437BD4690BDB081FF1FB881FF1FA1
:101F400080B582B000AF78607B68002B06D101239A
:101F5000002200212A20FFF7BDFE05E0044A7B682D
:101F60001360044B01221A700837BD4680BD00BFC4
:101F7000C081FF1FBC81FF1F80B400AF044B002253
:101F80001A60044B00221A7000BFBD4680BC704727
:101F9000C081FF1FBC81FF1F80B582B000AF786099
:101FA0007B68002B06D10123022200212A20FFF7A3
:101FB00091FE0EE07B6801221A807B682A225A80FB
:101FC0007B6801221A717B6800225A717B680022AB
:101FD0009A710837BD4680BD80B582B000AF034618
:101FE0000A46FB8013467B71064B1B78002B06D1FB
:101FF0000223032200212A20FFF76CFE00BF0837CE
:10200000BD4680BDBC81FF1F80B483B000AF0B4BC9
:102010001B78002B0DD00A4B1B68002B0AD0002325
:10202000FB8002E0FB880133FB80FB883F2BF9D962
:1020300000E000BF0C37BD4680BC7047BC81FF1F6D
:10204000C081FF1F80B483B000AF0346FB7100BFA7
:102050000C37BD4680BC704780B483B000AF0346E8
:102060000A46FB711346BB7100BF0C37BD4680BCEE
:10207000704780B483B000AF0346FB7100BF0C37DC
:10208000BD4680BC704700BF80B582B000AF264B14
:102090001B78002B06D01023002200210A20FFF716
:1020A00019FE3DE0214B01221A70214B11221A70BA
:1020B000204B00221A60204B00221A601F4B002286
:1020C0001A601F4B00221A601E4B00221A601E4B22
:1020D00000221A601D4B00221A600023FB710BE0E6
:1020E000FB791B4A0021D154FB791A4A002142F89E
:1020F0002310FB790133FB71FB791F2BF0D90A4BBD
:1021000001221A70144B00221A70144B00221A700C
:10211000134B00221A700120FFF794FF00F022F801
:102120000837BD4680BD00BFC781FF1FC481FF1FA8
:102130004081FF1FCC81FF1FD081FF1FD481FF1F73
:10214000D881FF1FDC81FF1F0C82FF1F0882FF1F49
:10215000E481FF1F1082FF1FC881FF1FC981FF1F7D
:10216000CA81FF1F80B500AF0C4B1B78002B06D136
:1021700010230F2200210A20FFF7ACFD0CE0084BD2
:102180001B78112B06D016230F2200210A20FFF7FF
:10219000A1FD01E000F026F880BD00BFC781FF1F50
:1021A0004081FF1F80B500AF0C4B1B78002B06D180
:1021B0001023102200210A20FFF78CFD0CE0084BB1
:1021C0001B78122B06D01623102200210A20FFF7BD
:1021D00081FD01E000F034F880BD00BFC781FF1F22
:1021E0004081FF1F80B500AF112000F051FF0E4B62
:1021F0001B681846FEF78BF90C4B00221A700C4B2B
:1022000000221A700B4800F0B1FC0B4B01221A702F
:10221000FEF7E5F9094B01221A70122000F038FF91
:10222000FFF7C0FF00BF80BD9082FF1FC581FF1F69
:102230000582FF1F63002000C881FF1FC981FF1FA7
:1022400080B500AF122000F023FFFEF72CFB00202A
:10225000FFF776FE0120FFF7F5FEFEF718FBFEF70D
:1022600002FBFEF706FB0C4B1B681846FEF758F9FD
:10227000094B1B681846FEF75CF9084B01221A70DF
:10228000074B10221A70212000F002FF1020FFF7E8
:10229000D9FE00BF80BD00BF9082FF1FCA81FF1F13
:1022A000C481FF1F80B500AF174B1B78002B06D1F0
:1022B00010231B2200210A20FFF70CFD23E0134B03
:1022C0001B680133114A1360114B1B78402B13D04C
:1022D000402B13DC302B0CD0302B0FDC102B02D01A
:1022E000202B03D00AE000F015F808E000F01BF8FE
:1022F00005E000F0ABF802E000BF00E000BF00F036
:1023000001FD00F051FD80BDC781FF1F0882FF1F46
:10231000C481FF1F80B500AF212000F0B9FE00F09E
:102320001BFA00BF80BD80B500AF222000F0B0FED8
:102330000E4B1B78012B02DC002B0BDA13E0022B77
:1023400011D10B4B30221A70312000F0A1FE00F0A9
:1023500011F809E0064B40221A70412000F098FE67
:1023600000F0F4F800E000BF00BF80BDC581FF1F92
:10237000C481FF1F80B500AF0C4B1B78002B06D12A
:102380001023112200210A20FFF7A4FC0CE0084BC7
:102390001B78302B06D01323112200210A20FFF7CF
:1023A00099FC01E000F046F880BD00BFC781FF1F27
:1023B000C481FF1F80B500AF0C4B1B78002B06D1EA
:1023C0001023122200210A20FFF784FC0CE0084BA6
:1023D0001B78302B06D01323122200210A20FFF78E
:1023E00079FC01E000F042F880BD00BFC781FF1F0B
:1023F000C481FF1F80B500AF0C4B1B78002B06D1AA
:102400001023132200210A20FFF764FC0CE0084B84
:102410001B78302B06D01323132200210A20FFF74C
:1024200059FC01E000F032F880BD00BFC781FF1FFA
:10243000C481FF1F80B500AF312000F029FE30209D
:10244000FFF700FE00F0E6F800BF80BD80B500AFEA
:10245000322000F01DFE044B1B68002B01D000F061
:102460002BF800BF80BD00BFD481FF1F80B500AF37
:10247000502000F00DFE044B1B68184600F076FB60
:1024800000F01AF800BF80BD4481FF1F80B500AF87
:10249000512000F0FDFD064B1B68184600F052FB72
:1024A000044B1B68002B01D000F006F800BF80BD74
:1024B0004481FF1FD481FF1F80B500AF094B1B78FB
:1024C000002B06D11023142200210A20FFF702FC62
:1024D00007E0054B31221A70332000F0D9FD00F0DF
:1024E00005F880BDC781FF1FC481FF1F80B500AF05
:1024F000064B1B681846FEF726F8FEF776F83420E0
:1025000000F0C6FD00F004F800BF80BD9082FF1F00
:1025100080B500AFFEF7C7F91020FFF793FD094B18
:102520001B6802211846FEF7CAF9FEF7B0F9064B00
:1025300010221A70212000F0ABFDFEF75CF800BFFE
:1025400080BD00BFD881FF1FC481FF1F80B500AFD1
:10255000094B1B78002B06D11023012200210A20F1
:10256000FFF7B8FB07E0054B40221A70412000F04E
:102570008FFD00F005F880BDC781FF1FC481FF1FDC
:1025800080B500AF412000F083FD4020FFF75AFDE9
:10259000FEF783F9FEF774F9422000F079FD00F0B0
:1025A00002F800BF80BD80B500AF422000F070FD92
:1025B00000F08AFDFEF77DF90A4B1B78022B0CD048
:1025C000022B0CDC002B02D0012B03D007E000F023
:1025D0000BF805E000F018F802E000BF00E000BFD3
:1025E00000BF80BDC581FF1F80B500AFFDF7DDFFD7
:1025F000034B00221A70034B00221A70FEE700BF43
:10260000C481FF1FC781FF1F80B500AF0020FDF709
:10261000D6FFFEE780B500AF00F056FD064B1B6805
:10262000184600F0A3FAFDF7D4FF044800F0BEFA04
:1026300000F050FD00BF80BD4481FF1F63002000FB
:1026400080B582B000AF0346FB71174B1B78002B9F
:1026500007D11023022200210A20FFF73BFB0123B0
:102660001DE0FB791F2B07D91123022200210A202C
:10267000FFF730FB012312E0FB7901229A400B4B5C
:102680001B681343094A1360094B1B78202B05D1A3
:10269000074B10221A70212000F0FAFC0023184684
:1026A0000837BD4680BD00BFC781FF1FCC81FF1F1B
:1026B000C481FF1F80B582B000AF0346FB71144B8D
:1026C0001B78002B07D11023032200210A20FFF7DB
:1026D00001FB012317E0FB791F2B07D911230322EC
:1026E00000210A20FFF7F6FA01230CE0FB79012212
:1026F00002FA03F3DA43074B1B681340054A1360E1
:1027000000F02AF8002318460837BD4680BD00BFF8
:10271000C781FF1FCC81FF1F80B500AF0B4B1B781B
:10272000002B07D110231C2200210A20FFF7D2FA28
:10273000012309E0064B1B68064A1360044B002284
:102740001A6000F009F80023184680BDC781FF1FFA
:10275000CC81FF1FD081FF1F80B500AF094B1B68E4
:10276000002B0CD1084B1B78102B08D1064B2022D4
:102770001A70222000F08CFC2020FFF763FC00BFC1
:1027800080BD00BFCC81FF1FC481FF1F80B582B018
:1027900000AF78600F4B1B78002B07D11023052268
:1027A00000210A20FFF796FA01230FE07B68002B37
:1027B00007D11223052200210A20FFF78BFA0123FB
:1027C00004E0054B1A787B681A7000231846083716
:1027D000BD4680BDC781FF1FC481FF1F80B582B089
:1027E00000AF78600F4B1B78002B07D11023052218
:1027F00000210A20FFF76EFA01230FE07B68002B0F
:1028000007D11223052200210A20FFF763FA0123D2
:1028100004E0054B1A787B681A70002318460837C5
:10282000BD4680BDC781FF1F4081FF1F80B582B0BC
:1028300000AF03460A46FB711346BB71174B1B786A
:10284000002B07D11023042200210A20FFF742FAAF
:1028500001231EE0FB79002B0DD0FB79012B0AD060
:10286000FB79022B07D01123042200210A20FFF755
:1028700031FA01230DE00A4AFB791370FB79022B30
:1028800003D1084ABB79137002E0074ABB79137081
:10289000002318460837BD4680BD00BFC781FF1F13
:1028A000C581FF1F0482FF1F0582FF1F80B582B014
:1028B00000AF78603960184B1B78002B07D11023CC
:1028C000092200210A20FFF705FA01231FE07B6897
:1028D000002B02D03B68002B07D1122309220021D4
:1028E0000A20FFF7F7F9012311E00C4B1A787B68F7
:1028F0001A700A4B1B78022B04D1094B1A783B68DB
:102900001A7003E0074B1A783B681A7000231846C8
:102910000837BD4680BD00BFC781FF1FC581FF1FAF
:102920000482FF1F0582FF1F80B582B000AF786070
:102930003960134B1B78002B07D110231D22002177
:102940000A20FFF7C7F9012315E07B68002B02D0AE
:102950003B68002B07D112231D2200210A20FFF71C
:10296000B9F9012307E0074B1A787B681A703B68B6
:1029700000221A70002318460837BD4680BD00BFEC
:10298000C781FF1FC581FF1F80B582B000AF03461E
:10299000FB710A4B1B78002B07D110231F2200214B
:1029A0000A20FFF797F9012303E0054AFB7913702A
:1029B000002318460837BD4680BD00BFC781FF1FF2
:1029C0004181FF1F80B582B000AF78600F4B1B784C
:1029D000002B07D110231E2200210A20FFF77AF9CD
:1029E00001230FE07B68002B07D112231E22002158
:1029F0000A20FFF76FF9012304E0054B1A787B6882
:102A00001A70002318460837BD4680BDC781FF1FD6
:102A10004181FF1F80B584B000AF78601E4B1B78EA
:102A2000002B06D11023072200210A20FFF752F9BC
:102A30002FE01A4B1B687A6813407B607B68002B81
:102A400027D0174B1A687B681343154A136000237D
:102A5000FB7317E0FB7B01229A407B681340002B3D
:102A60000DD0FB7B0F4AD35C002B08D1FB7B0D4ABA
:102A70000121D154FB7B0C4A0A2142F82310FB7B35
:102A80000133FB73FB7B1F2BE4D901217868FDF731
:102A900016FF1037BD4680BDC781FF1F4481FF1F51
:102AA000D481FF1FE481FF1F1082FF1F80B584B017
:102AB00000AF78601D4B1B78002B06D11023152228
:102AC00000210A20FFF706F92DE07B68DA43184B56
:102AD0001B681340164A13607B68DA43154B1B686A
:102AE0001340144A13607B68DA43134B1B6813408E
:102AF000114A13600023FB7312E0FB7B01229A4012
:102B00007B681340002B08D0FB7B0C4A0021D1547A
:102B1000FB7B0B4A002142F82310FB7B0133FB7344
:102B2000FB7B1F2BE9D91037BD4680BDC781FF1F36
:102B3000D481FF1FD881FF1FDC81FF1FE481FF1FAD
:102B40001082FF1F80B582B000AF7860064B1B7803
:102B5000002B06D11023162200210A20FFF7BAF815
:102B600000BF0837BD4680BDC781FF1F80B582B05A
:102B700000AF78600B4B1B78002B07D11023172276
:102B800000210A20FFF7A6F8012306E0064B1A6889
:102B90007B681343044A1360002318460837BD4678
:102BA00080BD00BFC781FF1F4481FF1F80B582B079
:102BB00000AF78600B4B1B78002B07D11023182235
:102BC00000210A20FFF786F8012307E07B68DA433B
:102BD000054B1B681340044A13600023184608374E
:102BE000BD4680BDC781FF1F4481FF1F80B584B0F3
:102BF00000AF7860164B1B78002B07D110231922E9
:102C000000210A20FFF766F800231DE07B68002BF7
:102C100005D07B685A1E7B681340002B07D0112318
:102C2000192200210A20FFF755F800230CE07868EC
:102C300000F0FEF80346FB73FB7B1F2B03D8FB7BE6
:102C4000044AD35C00E0002318461037BD4680BD1F
:102C5000C781FF1FE481FF1F80B582B000AF78609D
:102C6000114B1B78002B07D110231A2200210A20B8
:102C7000FFF730F8012312E07B68002B07D1122305
:102C80001A2200210A20FFF725F8012307E0074B4D
:102C90001A68074B1B681A437B681A6000231846A2
:102CA0000837BD4680BD00BFC781FF1FD481FF1F0D
:102CB000D881FF1F80B584B000AF78600F4B1B78C0
:102CC000002B07D11023082200210A20FFF702F869
:102CD00001230FE0786800F0ABF80346FB73FB7B41
:102CE0001F2B06D8FB7B064AD35C022B01D10023A5
:102CF00000E0012318461037BD4680BDC781FF1F85
:102D0000E481FF1F80B582B000AF00233B60002349
:102D1000FB7126E0FB79204AD35C012B1ED1FB79A5
:102D20001E4A52F82330002B18D0FB791B4A52F868
:102D30002320013A194941F82320FB79174A52F818
:102D40002330002B0AD1FB79134A0221D154FB799D
:102D5000012202FA03F33A6813433B60FB79013323
:102D6000FB71FB791F2BD5D93B68002B10D03B683A
:102D7000DA430B4B1B681340094A1360094B1A686E
:102D80003B681343074A136002213868FDF797FD3B
:102D900000BF0837BD4680BDE481FF1F1082FF1FC2
:102DA000D481FF1FD881FF1F80B582B000AF002300
:102DB0003B600023FB7118E0FB79194AD35C012BBF
:102DC00010D1FB79174A52F82330002B0AD1FB7936
:102DD000134A0321D154FB79012202FA03F33A6822
:102DE00013433B60FB790133FB71FB791F2BE3D964
:102DF0003B68002B10D03B68DA430B4B1B68134039
:102E0000094A1360094B1A683B681343074A136069
:102E100003213868FDF753FD00BF0837BD4680BD6C
:102E2000E481FF1F1082FF1FD481FF1FDC81FF1F81
:102E300080B485B000AF78600023FB7305E07B6849
:102E40005B087B60FB7B0133FB737B68012B02D942
:102E5000FB7B1F2BF3D9FB7B18461437BD4680BC88
:102E6000704780B483B000AF78607A68054B134038
:102E7000002B01D0012300E0002318460C37BD468B
:102E800080BC70476300200080B582B000AF03466D
:102E9000FB71124B1B78002B07D110230B22002152
:102EA0000A20FEF717FF012314E0FB79002B0DD059
:102EB000FB79012B0AD0FB79022B07D011230B22BF
:102EC00000210A20FEF706FF012303E0044AFB79F4
:102ED0001370002318460837BD4680BDC781FF1F09
:102EE0004281FF1F80B582B000AF78600F4B1B7826
:102EF000002B07D110230C2200210A20FEF7EAFE46
:102F000001230FE07B68002B07D112230C22002144
:102F10000A20FEF7DFFE012304E0054B1A787B68E8
:102F20001A70002318460837BD4680BDC781FF1FB1
:102F30004281FF1F80B582B000AF0346FB710A4B90
:102F40001B78002B07D013230D2200210A20FEF747
:102F5000C1FE012303E0054AFB79137000231846E4
:102F60000837BD4680BD00BFC781FF1FC681FF1F58
:102F700080B582B000AF78600F4B1B78002B07D173
:102F800010230E2200210A20FEF7A4FE01230FE0E9
:102F90007B68002B07D112230E2200210A20FEF7A6
:102FA00099FE012304E0054B1A787B681A70002310
:102FB00018460837BD4680BDC781FF1FC681FF1F69
:102FC00080B582B000AF03460A46FB711346BB7161
:102FD000084B1B78002B07D11023062200210A2062
:102FE000FEF778FE012300E0002318460837BD46AF
:102FF00080BD00BFC781FF1F80B582B000AF034610
:10300000FB71084B1B78002B07D110230A220021EB
:103010000A20FEF75FFE012300E000231846083770
:10302000BD4680BDC781FF1F80B483B000AF03469B
:10303000FB7100BF0C37BD4680BC704780B483B0C5
:1030400000AF0346FB7100BF0C37BD4680BC704724
:1030500080B582B000AF78607B68002B06D1122368
:10306000002200210A20FEF735FE0EE07B680022D8
:103070001A807B680A225A807B6802221A717B6858
:1030800000225A717B6800229A710837BD4680BDC4
:1030900080B485B000AF0346FB71094B1B78FB730E
:1030A000074AFB791370FA7BFB799A4202D0054BF1
:1030B00000221A6000BF1437BD4680BC704700BFB5
:1030C0004081FF1F0C82FF1F80B400AF00BFBD46D0
:1030D00080BC704780B400AF00BFBD4680BC704765
:1030E00080B483B000AF786000BF0C37BD4680BCB1
:1030F000704780B483B000AF786000BF0C37BD4626
:1031000080BC704780B483B000AF786000BF0C37DC
:10311000BD4680BC704780B483B000AF786000BF0C
:103120000C37BD4680BC704780B483B000AF786078
:1031300000BF0C37BD4680BC704780B483B000AF81
:10314000786000BF0C37BD4680BC704780B483B048
:1031500000AF786000BF0C37BD4680BC704780B4BC
:1031600083B000AF786000BF0C37BD4680BC7047AD
:1031700080B400AF00BFBD4680BC704780B483B050
:1031800000AF0346FB7100BF0C37BD4680BC7047E3
:1031900080B400AF00BFBD4680BC704780B400AFB4
:1031A00000BFBD4680BC704780B400AF00BFBD46C5
:1031B00080BC704780B400AF00BFBD4680BC704784
:1031C00080B483B000AF0346FB80FB88032B94BF21
:1031D00001230023DBB218460C37BD4680BC704784
:1031E00080B483B000AF0023BB7100237B71002348
:1031F0003B710023FB7126E0FB79234A1B0113443A
:103200000C331B78002B1BD0FB791F4A1B01134486
:1032100002331B78032B06D0032B10DC012B0AD0C2
:10322000022B04D00BE0BB790133BB7108E07B7942
:1032300001337B7104E03B7901333B7100E000BF57
:10324000FB790133FB71FB79032BD5D9BB79002BBB
:1032500003D00E4B03221A7010E07B79002B03D0B1
:103260000A4B02221A7009E03B79002B03D0074B6E
:1032700001221A7002E0054B00221A7000BF0C37C1
:10328000BD4680BC704700BF9C82FF1F9582FF1F18
:1032900080B483B000AF0346FB80FB88274A1B0144
:1032A00013440C331B78002B42D0FB88234A1B01AC
:1032B000134402331B78002B3AD0FB88204A32F8A3
:1032C0001330042B24D8FB881E4AD25C0132D1B2C1
:1032D0001C4AD154FB881B4AD35C022B10D9FB88B3
:1032E000164A1B011344023303221A70164B1B8823
:1032F0004FF6FF72934216D1134AFB88138012E0F7
:10330000FB880E4A1B011344023302221A700AE0A2
:10331000FB880C4A0021D154FB88084A1B01134446
:10332000023301221A70FB88054A002122F813108B
:1033300000BF0C37BD4680BC704700BF9C82FF1F9A
:10334000DC82FF1FEC82FF1F4881FF1F80B500AFAA
:10335000064B1B78012B03D0044B1B78002B02D1AA
:103360000020FDF7BBFC00BF80BD00BF9582FF1FA2
:1033700080B584B000AF78607B68002B06D1112344
:10338000002200210D20FEF7A5FC52E02A4A7B68AE
:1033900013600023FB732DE0FB7BFA7B91B2274A7D
:1033A0001B0113440A461A80FB7B244A1B01134469
:1033B000023300221A70FB7B204A1B0113440433A2
:1033C00000221A80FB7B1D4A1B0113440C3301228F
:1033D0001A70FB7B1A4A002122F81310FB7B194A52
:1033E000052122F81310FB7B174A0021D154FB7BE7
:1033F0000133FB73FB7B032BCED9144B4FF6FF72CB
:103400001A80134B00221A607B685B68002B0AD07D
:103410007B685B681A780F4B1A700E4B1B78194645
:10342000002000F0C1FA0C4B01221A700B4B012254
:103430001A701037BD4680BD9882FF1F9C82FF1F07
:10344000DC82FF1FE482FF1FEC82FF1F4881FF1F09
:10345000F082FF1F9682FF1F9582FF1F9482FF1F3D
:1034600080B500AF094B1B78002B06D11023012239
:1034700000210D20FEF72EFC06E01523012200217D
:103480000D20FEF727FC00BF80BD00BF9482FF1F08
:1034900080B582B000AF78607B68002B06D1122324
:1034A000022200210D20FEF715FC0EE07B685C2255
:1034B0001A807B680D225A807B6801221A717B6812
:1034C00000225A717B6800229A710837BD4680BD80
:1034D00080B584B000AF0346FB710123FB73154B2D
:1034E0001B78002B07D11023032200210D20FEF7AB
:1034F000F1FB012319E0FB79002B01D1012314E03A
:10350000FB791946002000F04FFA0346FB73FB7B62
:10351000002B03D1084AFB79137005E02023032216
:1035200000210D20FEF708FCFB7B18461037BD4636
:1035300080BD00BF9482FF1F9682FF1F80B500AF41
:10354000074B1B78002B07D110230B2200210D20E5
:10355000FEF7C0FB002301E0024B1B78184680BD3C
:103560009482FF1F9682FF1F80B582B000AF034692
:103570000A46FB801346BB80214B1B78002B08D1E9
:10358000FB88D9B210230E220D20FEF7A3FB0123E6
:1035900032E0FB881846FFF713FE0346002B08D1E4
:1035A000FB88D9B214230E220D20FEF793FB0123D2
:1035B00022E0FB88134A1B0113440C331B78002BB9
:1035C00019D0FB88104A32F81320013291B20E4A0A
:1035D00022F81310FB880B4A1B01134402331B789B
:1035E000002B06D1FB88074A1B011344023301223A
:1035F0001A70002300E0012318460837BD4680BD3D
:103600009482FF1F9C82FF1FDC82FF1F80B582B067
:1036100000AF0346FB80134B1B78002B08D1FB88BF
:10362000D9B210230C220D20FEF754FB002315E025
:10363000FB881846FFF7C4FD0346002B08D1FB8822
:10364000D9B214230C220D20FEF744FB002305E021
:10365000FB88054A1B01134402331B7818460837C0
:10366000BD4680BD9482FF1F9C82FF1F80B500AFC6
:10367000074B1B78002B07D110230D2200210D20B2
:10368000FEF728FB002301E0024B1B78184680BDA3
:103690009482FF1F9582FF1F80B500AF054B032268
:1036A0001A7021230F2200210D20FEF745FB00BFD9
:1036B00080BD00BF9582FF1F80B500AF084B1B780F
:1036C000002B08D11023102200210D20FEF702FB51
:1036D0004FF6FF7301E0034B1B88184680BD00BF07
:1036E0009482FF1F4881FF1F80B582B000AF104B4E
:1036F0001B78002B17D00F4B1B6801330D4A13604A
:103700000023FB7107E0FB799BB21846FFF7C0FD71
:10371000FB790133FB71FB79032BF4D9FFF760FDD3
:10372000FFF714FE00E000BF0837BD4680BD00BFB4
:103730009482FF1FF082FF1F4FF0807340F8043C1B
:1037400040F8081C6FF0020340F80C3C4FF01233B5
:1037500040F8103C4FF0033340F8143C4FF0023374
:1037600040F8183C4FF0013340F81C3C40F8202C46
:103770004FF0043340F8243C4FF0053340F8283C28
:103780004FF0063340F82C3C4FF0073340F8303C04
:103790004FF0083340F8343C4FF0093340F8383CE0
:1037A0004FF0103340F83C3C4FF0113340F8403CB0
:1037B000A0F14403A0F18401002243F804299942B6
:1037C000FBD1002340F8843C883870474FF0E02359
:1037D000D3F8202D42F0F002C3F8202DD3F8242D89
:1037E00042F47002C3F8242DD3F8242D42F0A042F5
:1037F000C3F8242D00200E4A10600E4A01211160EA
:10380000186198610C4A5A6107221A61D3F8882D11
:103810000192019A42F470020192019AC3F8882D34
:1038200062B6BFF34F8FBFF36F8F00DF00BF00BFE3
:103830004C81FF1FF482FF1FFFE104000023044AB4
:1038400013604FF0E0221361024A1360704700BF1B
:10385000F482FF1F4C81FF1F424B19680868B0E8D3
:10386000F00FB0EC108AB0EC100A80F309884FF02A
:10387000000080F311884EF00D0E7047EFF30980C1
:10388000BFF36F8F20E9F00F1EF0100F08BF20ED7F
:10389000108A344B1A68106008B54FF0500080F35E
:1038A0001188BFF34F8FBFF36F8FFDF77EF84FF096
:1038B000000080F31188BDE80840196808681EF010
:1038C000100F08BFB0EC108AB0E8F00F80F3098841
:1038D000BFF36F8F704708B5034B1B68012B00D0F7
:1038E00008BDFDF768F8FBE7F482FF1F72B6074AD0
:1038F000136801331360064B1B68012B00D070471F
:10390000BFF34F8FBFF36F8FF9E700BF4C81FF1FED
:10391000F482FF1F054B1B681BB1044A1368013B6F
:103920001360024B1B6803B962B670474C81FF1FDE
:10393000EFF30580002818BF012308BF00231846B5
:103940007047EFF311804FF0500181F31188BFF3FE
:103950004F8FBFF36F8F03461846704780F311886F
:10396000704700005481FF1F0020704770470020FF
:103970007047FEE70020704770470020704770478F
:103980007047704770477047704700207047704716
:103990007047704770477047704770477047002006
:1039A00070477047704770470020704770470000AD
:1039B00011EE503F1C4644F4700401EE504FBFF32B
:1039C0004F8FBFF36F8F0C4D0C4C05E02A46151D31
:1039D00023461C1D12681A60094B9C42F6D3094C01
:1039E00003E023461C1D00221A60074B9C42F8D3BB
:1039F000FCF707FEFEE700BF043B00000080FF1F4E
:103A00005081FF1F5081FF1FFC82FF1F010000003B
:103A1000640000000100000032000000020000000D
:103A200064000000010000003200000020000000DF
:103A300064000000010000003200000040000000AF
:103A400064000000010000003200000000002000BF
:103A5000640000000100000032000000008000004F
:103A6000C800000001000000640000000000010028
:103A7000C800000001000000640000000C3A0000D3
:103A80000701010100000100050001000100020022
:103A90000200010001000000000000000000000022
:103AA0000000000000000000010001000000010013
:103AB00002000000010003000000010004000000FB
:103AC00001000000010001000100010001000000F0
:103AD00002000100843A0000000000000A0001001A
:103AE0004F735461736B00004F73416C61726D00D2
:0C3AF000043B00000080FF1F500100009C
:083AFC005081FF1FAC01000026
:103B040000000000000000000000000005000000AC
:103B14000100000061090000010000000000000035
:103B24000000000004000000010000007309000010
:103B3400020000000000000000000000030000007C
:103B440001000000870900000300000000000000DD
:103B540000000000020000000100000093090000C2
:103B6400040000000000000000000000010000004C
:103B7400010000009F090000000000000A0000008E
:103B84000A000000000000000000000029090000F5
:103B940000000000010000003200000032000000BC
:103BA40000000000000000003709000000000000D1
:103BB4000200000064000000640000000000000037
:103BC40000000000450900000000000003000000A0
:103BD4000A0000000A0000000000000000000000CD
:103BE4005309000000000000000000000000000075
:103BF40000000000000000000000000001000000C0
:103C040000000000000000000000000000000000B0
:103C1400020000000000000000000000000000009E
:103C24000000000000000100050000000400000086
:103C3400030000000080FF1F7880FF1FE880FF1F43
:103C440011FF020063002000FFFF00005A5A000029
:0400000300000500F4
:00000001FF
